:020000040800F2
:100000003005002065010008B319000869180008D0
:10001000B119000871020008BD1B000800000000B3
:10002000000000000000000000000000B7190008F8
:100030002903000800000000B51900080D1A000887
:100040007F0100087F0100087F0100087F01000890
:100050007F0100087F0100087F0100087F01000880
:100060007F0100087F0100087F0100087F01000870
:100070007F0100087F0100087F0100087F01000860
:100080007F0100087F0100087F0100087F01000850
:10009000C10200087F0100087F0100087F010008FD
:1000A0007F0100087F0100087F0100087F01000830
:1000B0007F0100087F0100087F0100087F01000820
:1000C0007F0100087F0100087F0100087F01000810
:1000D0007F0100087F0100087F0100087F01000800
:1000E0007F0100087F0100087F0100080000000078
:1000F0000000000000000000000000000000000000
:1001000000000000000000007F0100087F010008DF
:100110007F0100087F0100087F0100087D1A0008A8
:100120007F0100087F0100087F0100087F010008AF
:100130007F01000800000000000000007F010008AF
:100140007F0100081D0300087F0100087F010008EF
:10015000DFF80CD000F07AF800480047F91E0008DC
:10016000300500200648804706480047FEE7FEE7C6
:10017000FEE7FEE7FEE7FEE7FEE7FEE7FEE7FEE757
:10018000791A0008510100082DE9F05F05460020AA
:1001900092469B4688460646814640241BE02846F8
:1001A00041464746224600F020F853465A46C01AB8
:1001B000914110D311461846224600F038F82D1A06
:1001C00067EB01084F4622460120002100F02FF87E
:1001D00017EB00094E41201EA4F10104DFDC484664
:1001E00031462A464346BDE8F09F202A04DB203AE8
:1001F00021FA02F00021704721FA02F3D040C2F147
:1002000020029140084319467047D2B201E000F83D
:10021000012B491EFBD270470022F6E710B51346AA
:100220000A4604461946FFF7F0FF204610BD202A73
:1002300004DB203A00FA02F1002070479140C2F13D
:10024000200320FA03F3194390407047064C074DF2
:1002500006E0E06840F0010394E807009847103496
:10026000AC42F6D3FFF778FF641F0008841F000834
:10027000FEE7000000B58BB000200121CDE90601AA
:1002800008910590049000900190029003906946B7
:100290000A4800F0C3F808B100F047F8074800F03A
:1002A000FFFB08B100F041F80221044800F03FF8DC
:1002B000002801D000F039F80BB000BD200000206C
:1002C000014800F0A6B900002000002000B58BB066
:1002D0000E20059000200121CDE90601089104902F
:1002E000009001900290039069460B4800F096F848
:1002F00008B100F01AF8084800F0D2FB08B100F08D
:1003000014F80221044800F012F8002801D000F08F
:100310000CF80BB000BD000048000020014800F0C0
:1003200078B9000048000020704772B6FEE790F8E8
:100330002020012A07D0022A05D0416A41F48021F9
:10034000416201207047006842690A43426100200F
:100350007047F0B590F820500468A468012D05D0CE
:10036000022D03D0416A41F4802153E014F0406F24
:1003700001D1E5004BD5C4F30164022C03D9416AD5
:1003800041F4000146E00125A5401D608D684FF451
:10039000C0739DB1CE6835434E6845EAC605066810
:1003A00003EB0417F5514FF4C275076805EB04150C
:1003B0000E697E51097D012905D009E00E88CD68BE
:1003C00045EA4655EBE701684E5946F480764E51B2
:1003D0001179D2F805504FF4C67641EA0525016837
:1003E00006EB04168D511178D2F801204FF4C47534
:1003F00041EA0221026805EB04155151006803EB44
:100400000411425842F0010242500020F0BD416AFE
:1004100041F4001141620120F0BD000010B590F8D8
:100420002020012A07D0022A05D0416A41F4802108
:100430004162012010BD3B48D0F8002242F0010289
:10044000C0F80022D0F8002222F47C52C0F800222A
:10045000D0F800224B6A42EA0322C0F800220A7D4B
:1004600002F01F0301229A40D0F81C329343C0F8D7
:100470001C32CB69B3B9D0F80C329343C0F80C32BC
:100480008C894B6864F31F434C6900EBC404C4F8C7
:1004900040320C890B6864F31F434C6900EBC404C1
:1004A000C4F84432CB69012B16D1D0F80C32134377
:1004B000C0F80C320C884B6864F31F434C6900EBA6
:1004C000C404C4F840320C89CB6864F31F434C6900
:1004D00000EBC404C4F844328B69002BD0F804321A
:1004E0000ED01343C0F804320B69002BD0F814323D
:1004F00008D01343C0F81432096A012904D008E077
:100500009343EFE79343F5E7D0F81C121143C0F88B
:100510001C12D0F8001221F00101C0F800120020D6
:1005200010BD000000640040704730B590F82040D6
:10053000012C05D0022C03D0416A41F480215DE0FA
:100540000468002955D02469A40754D04FF4D87406
:10055000056804EB01142D5915F004059560056834
:100560002D594ED0ED08556005682C5904F0020451
:10057000D4604FF4DA74056804EB01142D5905F0CA
:100580000F05156105682D59C5F3072595610568A7
:100590002C59240C54614FF4DC72046802EB0112F4
:1005A000A4581C700468A458240A5C700468A458F9
:1005B000240C9C700468A258120EDA704FF4DE729C
:1005C000046802EB0112A4581C710468A458240AA0
:1005D0005C710468A458240C9C710468A258120E23
:1005E000DA71006881B1016941F0200101610020E8
:1005F00030BDE468A8E7416A41F40011416201207E
:1006000030BD6D0D1560AFE7C16841F02001C160DC
:10061000EDE72DE9F05F0546006800244669D0F853
:1006200004908768D0F80CB0D0F810A0D0F81880EB
:10063000F10748D0F90714D001218160B80703D52C
:10064000284600F05AFA0CE0780702D54FF400640F
:1006500007E0380702D54FF4805402E0284600F046
:100660004BFAF80516D529684FF480708860B805F4
:1006700003D5284600F043FA0CE0780502D544F48F
:10068000005407E0380502D544F4804402E02846CF
:1006900000F034FAF80316D529684FF480308860EA
:1006A000B80303D5284600F02CFA0CE0780302D5F5
:1006B00044F4004407E0380302D544F4803402E0F7
:1006C000284600F01DFA300707D55FEACB6004D555
:1006D0002968102044F40074C86070074FF00807C0
:1006E00007D55FEA0B7004D52868C760284600F07C
:1006F000A5F9B00706D52868C068800702D028464B
:1007000000F09EF9700607D55FEACA6004D5296833
:10071000102044F480640861B00607D55FEA0A70CF
:1007200004D528680761284600F0B6F9F00606D51A
:1007300028680069800702D0284600F0AEF9B003AF
:1007400008D55FEAC96005D52968102048602846A9
:1007500000F0A4F9F00307D55FEA097004D5286812
:100760004760284600F0CEF9300446D55FEA49706C
:1007700040D5F00504D55FEAC87001D044F001040B
:10078000B00504D55FEA887001D544F00204700515
:1007900004D55FEA487001D544F00404300529D53A
:1007A00018F0700F26D008F07000402815D006DC35
:1007B000102809D020280AD0302816D10AE0502865
:1007C0000ED0602811D10EE044F008040DE044F092
:1007D00010040AE044F0200407E044F0400404E080
:1007E00044F0800401E044F480742868816921F0B9
:1007F00070018161296804204860002C05D0686A76
:10080000204368622846FFF78FFEBDE8F09F70B571
:10081000040003D094F8200010B104E0012070BD62
:10082000204600F081F82068016841F00101016074
:1008300000F06CFA0546052604E000F067FA401B5C
:100840000A2811D820684068C007F6D020680168DF
:1008500021F00201016000F059FA05460BE000F0BA
:1008600055FA401B0A2806D9606A40F400306062DD
:1008700084F82060D2E7206840688007EFD4207EAB
:100880000128206801683DD021F080010160607E70
:1008900001282068016838D021F040010160A07E65
:1008A00001282068016833D021F020010160E07E3A
:1008B0000128206801682ED041F010010160207FDE
:1008C00001282068016829D021F008010160607FBB
:1008D00001282068016824D021F004010160D4E9D6
:1008E00002010843D4E90412114308436168491E18
:1008F00008432168C86100206062012084F820005C
:10090000002070BD41F08001C0E741F04001C5E723
:1009100041F02001CAE721F01001CFE741F00801C2
:10092000D4E741F00401D9E7F0B585B000213E4A93
:10093000009101910291039103681068394F3B4C7B
:10094000022503263A49401CBB4232D110600128DF
:1009500007D1C86940F00070C861C86900F0007034
:100960000490886940F0080088618869694600F051
:10097000080004904FF480700090204600F0D6F8F4
:100980004FF40070CDE9000569460396204600F05B
:10099000CDF82848416821F4C04141F0E06141F4BC
:1009A0008041416000220121142000F01FFA142030
:1009B00033E0214FBB4232D1CB6943F08063CB613E
:1009C000CB69012803F080630493106007D1C869E4
:1009D00040F00070C861C86900F000700490886938
:1009E00040F0080088618869694600F008000490BA
:1009F0004FF480500090204600F098F84FF40050DB
:100A0000CDE9000569460396204600F08FF80022E4
:100A10000121412000F0EAF9412000F0D9F905B0A8
:100A2000F0BD00000064004000000020000C014008
:100A300000100240000001400068004070470000C4
:100A400010B5044600680D4988420AD10C4B0D4A86
:100A500000212046FFF769FD0A4801680AA001F05D
:100A6000AFF80C492068884207D12046BDE8104005
:100A7000034B044A0021FFF758BD10BD006400403D
:100A8000180000201401002049443A202578200D48
:100A90000A0000000068004070477047704700007F
:100AA00070B5044690F82000012804D0606A40F434
:100AB0000020606218E0022084F8200020680168AD
:100AC00021F00101016000F021F905460EE000BFB0
:100AD00000F01CF9401B0A2808D9606A40F4003075
:100AE0006062052084F82000012070BD2068406805
:100AF000C007EDD1606270BD7047704770477047A6
:100B0000704770477047000070B5044600F0FEF86B
:100B10000546601C02D004480078044400F0F6F852
:100B2000401BA042FAD370BD080000202DE9F84F09
:100B3000DFF8B891002409F1040A0AF1040B2346F6
:100B40000F270BF1040EC9E00125A5402A40AA4257
:100B50007DD1674ED1F804C0ACEB0608B44532D065
:100B600014DCBCF1030F3AD009DCBCF1000F2AD031
:100B7000BCF1010F1CD0BCF1020F31D11DE0BCF162
:100B8000110F17D0BCF1120F2AD119E0B8F5881F48
:100B900019D006DCB8F5803F15D0B8F5801F1FD1FD
:100BA00011E0B8F5001F0ED0B8F5041F18D10AE007
:100BB000CB6815E0CB681B1D12E0CB6808330FE053
:100BC000CB680C330CE08B682BB1012B4FF0080382
:100BD00003D0456104E0042302E0056100E0002346
:100BE000FF2A01D8064601E000F104064FEA840519
:100BF00001D9A5F12005D6F8008007FA05FC28EAFE
:100C00000C0803FA05F548EA0508C6F800804D68A7
:100C1000ED0062D5374DAE6946F00106AE61AD69B3
:100C200024F0030605F001050095334D06EB050C95
:100C3000DCF80850A607360F07FA06F825EA08057B
:100C4000DFF8B880404503D14FF0000817E044E0DA
:100C5000DFF8AC80404502D14FF001080FE0DFF82B
:100C6000A480404502D14FF0020808E0DFF89880E8
:100C7000404502D14FF0030801E04FF0040808FAA4
:100C800006F848EA0508CCF808804D68D9F80060F5
:100C9000ED034D4601D5164300E096432E604D68A6
:100CA000DAF80060AD03554601D5164300E09643DF
:100CB0002E604D68DBF80060ED025D4601D51643FD
:100CC00000E096432E604D68DEF80060AD02754688
:100CD00001D5164300E096432E60641C0D682A4639
:100CE000E5407FF431AFBDE8F88F0000000401401B
:100CF00000001110001002400000014000080140F7
:100D0000000C0140001001400014014001488068BF
:100D100070470000080000200248816802781144F2
:100D20008160704708000020074810B5016841F055
:100D300010010160032000F079F8002000F006F8AF
:100D400000F024F8002010BD0020024070B50D4DC9
:100D500004464FF47A712878B1FBF0F00A4909682B
:100D6000B1FBF0F000F07AFB48B9102C07D200225A
:100D70002146501E00F03AF800206C6070BD012042
:100D800070BD000008000020140000200E4808B5C7
:100D9000816941F001018161816901F001010091E6
:100DA000C16941F08051C161C06900F0805000907C
:100DB000052000F03BF80548416821F0E06141F072
:100DC0000071416008BD00000010024000000140B9
:100DD000002809DB00F01F0201219140400980003A
:100DE00000F1E020C0F8001170470000F0B40E4B95
:100DF0001B680C46C3F30223C3F10705042D00D979
:100E00000425191D072901D2002300E0DB1E01265D
:100E100006FA05F1491E214099409E40761E164073
:100E20003143F0BC00F0DCBE0CED00E0064900F000
:100E3000070208684FF6FF03184040EA0220034A01
:100E400010430860704700000CED00E00000FA0558
:100E50002DE9F0470F46050061D0434E306800F0A1
:100E60000700B84209D2306820F0070038433060EC
:100E7000306800F00700B84251D128683B4C810728
:100E800012D5400703D5606840F4E06060602878C0
:100E9000000703D5606840F4605060606068A9682E
:100EA00020F0F000084360602878C00728D0686808
:100EB000012810D02168022810D0890700292EDAD5
:100EC000616821F0030101436160FFF71FFF804665
:100ED00041F288390DE021688903EFE78901EDE7E8
:100EE000FFF714FFA0EB0801494502D90320BDE834
:100EF000F0876068696800F00C00B0EB810FEFD1FB
:100F0000306800F00700B8420BD9306820F00700C5
:100F100038433060306800F00700B84201D001204B
:100F2000E5E72878400705D56068E96820F4E060C7
:100F3000084360602878000706D56068296920F4B6
:100F4000605040EAC100606000F038F86168084A0B
:100F5000C1F30311515CC8400649086006480068A7
:100F6000FFF7F4FE0020C2E700200240001002401C
:100F70004C1F0008140000200C0000200448054904
:100F800000684968044AC1F30221515CC8407047B7
:100F900014000020001002405C1F000804480549AE
:100FA00000684968044AC1F3C221515CC8407047D7
:100FB00014000020001002405C1F0008F0B523A2BE
:100FC00089B00FCA04AC84E80F0024A10FC98DE8D2
:100FD0000F0026494A68264802F00C03042B2FD044
:100FE000082B2DD104A8C2F38343C45CD00329D5B8
:100FF000C86A00F00F001DF80020C86AC00316D5AB
:10100000C86AC96AC0F30310C1F30321401C891CDC
:10101000A0FB0223A1FB0416154F0025A1FB070C22
:1010200006FB07C601FB0561FFF7AEF803E01048B9
:101030006043B0FBF2F09DF81D10A14200D14008C2
:1010400009B0F0BD0B486043FAE70000000004055A
:101050000607080900000000000D0000010203045B
:1010600005060708090A0B0C0D0E0F1000100240B0
:1010700000127A0000093D002DE9F84F040070D0FD
:101080002078F14DC00749D06868C0F3810001287D
:1010900007D06868C0F38100022809D16868C003DE
:1010A00006D52868800339D5A0680028E7D035E048
:1010B000A068B0F5803F0BD010B1B0F5A02F11D0D3
:1010C000286820F480302860286820F4802002E01E
:1010D000286840F480302860A06890B1FFF716FEC1
:1010E00006460AE0286840F480202860F0E700BF48
:1010F000FFF70CFE801B642876D828688003F7D59C
:101100000CE0FFF703FE064605E000BFFFF7FEFD1B
:10111000801B6428F0D828688003F7D42078CB4E51
:1011200080074FF001094FF000073AD5686810F0CA
:101130000C0F07D06868C0F38100022809D16868E5
:10114000C00306D42868800715D56069012808D136
:1011500011E06069B8B1C6F80090FFF7D7FD80468E
:1011600006E042E1FFF7D2FDA0EB08000228C3D859
:1011700028688007F6D52868A16920F0F80040EAC1
:10118000C10028600DE03760FFF7C0FD804605E034
:10119000FFF7BCFDA0EB08000228ADD82868800747
:1011A000F6D4207800072ED5A948E169E9B1C0F846
:1011B0000090FFF7ABFD804606E000BFFFF7A6FDFD
:1011C000A0EB0800022897D8686A8007F6D5A148E6
:1011D0004FF4FA510068B0FBF1F0009000BF0098A6
:1011E000411E0091FAD20EE0B0E00760FFF78EFDDD
:1011F000804605E0FFF78AFDA0EB0800022889D8A9
:10120000686A8007F6D42078400763D5E8694FF014
:101210000008C00009D4E86940F08050E861E8693E
:101220004FF0010800F0805000908B480168C9051C
:1012300012D40168834641F480710160FFF766FDB6
:10124000824605E0FFF762FDA0EB0A0064287DD826
:10125000DBF80000C005F5D5206901280AD008B1E7
:10126000052813D0286A20F001002862286A20F09F
:10127000040002E0286A40F001002862206941F27F
:10128000883B98B1FFF742FD82460BE0286A40F0A8
:1012900004002862EEE700BFFFF738FDA0EB0A016B
:1012A000594553D8286A8007F6D50CE0FFF72EFD84
:1012B000824605E0FFF72AFDA0EB0A01594545D813
:1012C000286A8007F6D4B8F1000F03D0E86920F04F
:1012D0008050E861E06AD0B36968C90307D56968DE
:1012E000C1F38101022902D1E96AC9037DD4022830
:1012F00008D0E86A20F48030E862B766FFF706FDA0
:1013000080463BE02868C00005D5E86A616B00F0C4
:10131000F000884269D1B766FFF7F8FC804605E027
:10132000FFF7F4FCA0EB0800642874D828680001DB
:10133000F6D4E86A616B20F0F0000843E862E86ADE
:10134000216B20F470600843E86201E063E018E07C
:10135000C6F86890FFF7DAFC804605E0FFF7D6FC98
:10136000A0EB0800642856D828680001F6D508E0EC
:10137000FFF7CCFCA0EB080064284CD828680001DB
:10138000F6D4206A90B36968C1F38101022949D07B
:101390000228376603D0FFF7B9FC04463EE0FFF7AA
:1013A000B5FC074605E000BFFFF7B0FCC01B0228F4
:1013B00031D828688001F7D4606AB0F5803F09D140
:1013C000E86A61680843E862E86AE16820F00F00B3
:1013D0000843E862D4E909010843696821F47411FB
:1013E00008436860C6F8609001E028E029E0FFF754
:1013F0008DFC044605E000BFFFF788FC001B0228B7
:1014000009D828688001F7D51BE000BFFFF77EFCF4
:10141000001B022802D90320BDE8F88F286880014C
:10142000F4D40EE00128F7D06868626A00F48031D5
:10143000914204D1A16A00F47010884201D00120C9
:10144000EAE70020E8E70000001002400000424206
:1014500080044242140000200070004010B5401E7D
:10146000B0F1807F01D3012010BD4FF0E024606116
:101470000F21601700F0B4FB0020A061072020615D
:10148000002010BD7047704770B590F83C20012ACD
:1014900029D0012480F83C40022280F83D200368D6
:1014A0005A689D6822F070060A6832435A600F4BF2
:1014B00002689A420BD0B2F1804F08D00C4B9A428E
:1014C00005D00C4B9A4202D00B4B9A4204D149688A
:1014D00025F080031943916080F83D40002180F899
:1014E0003C10084670BD022070BD0000002C014079
:1014F0000004004000080040000C004010B504004B
:1015000003D094F83D0010B107E0012010BD002089
:1015100084F83C00204600F01FF8022084F83D00CB
:10152000211D206800F0B0FA012084F8460084F8FC
:101530003E0084F83F0084F8400084F8410084F8BD
:10154000420084F8430084F8440084F8450084F89D
:101550003D00002010BD000008B500680B4988421E
:1015600012D10B48C16941F02001C161C06900225C
:1015700000F02000009011463720FFF737FCBDE84F
:1015800008403720FFF724BC08BD000000140040CD
:101590000010024090F83D10012901D00120704751
:1015A000022180F83D100168CA6842F00102CA6059
:1015B00000680D4988420BD0B0F1804F08D00B492C
:1015C000884205D00A49884202D00A49884204D19B
:1015D000816801F00701062903D0016841F001018B
:1015E0000160002070470000002C01400004004012
:1015F00000080040000C0040704770B504460068C9
:1016000001694FF00005C943890715D4C168C94372
:10161000890711D4E91E01610120207720688069C3
:101620008007204602D0FFF7E7FF04E000F098F8BB
:10163000204600F096F8257720680169C9434907DC
:1016400017D4C168C943490713D46FF0040101617D
:10165000022020772068806910F4407F204602D065
:10166000FFF7CAFF04E000F07BF8204600F079F8AD
:10167000257720680169C943090716D4C168C943A1
:10168000090712D46FF00801016104202077206857
:10169000C0698007204602D0FFF7AEFF04E000F0EB
:1016A0005FF8204600F05DF8257720680169C9439E
:1016B000C90617D4C168C943C90613D46FF0100115
:1016C0000161082020772068C06910F4407F20461F
:1016D00002D0FFF791FF04E000F042F8204600F04E
:1016E00040F8257720680169C943C90708D1C16856
:1016F000C943C90704D1891E0161204600F032F8B0
:1017000020680169C943090609D4C168C9430906AB
:1017100005D46FF0800101612046FFF7B3FE206819
:101720000169C943490609D4C168C943490605D4BA
:101730006FF040010161204600F02CF8206801693B
:10174000C94389060BD4C168C943890607D46FF021
:10175000200101612046BDE87040FFF794BE70BDD6
:10176000704770471CB50068084988420CD14FF497
:101770007A6140F6B830CDE900014B108A104FF481
:101780008071034800F018F91CBD000000140040EF
:1017900048000020704770B5040004D094F83D0064
:1017A000002510B106E0012070BD84F83C502046B1
:1017B00000F022F8242084F83D002068C16821F45C
:1017C0000051C160204600F09DF92068016921F4B4
:1017D000904101612068416921F02A01416120683E
:1017E000C16841F40051C1602564202084F83D00A7
:1017F00084F83E00002070BD30B585B00024009410
:1018000001940294039400681449884224D1144836
:10181000816941F480418161816901F480410491D1
:10182000816941F00401816180690E4D00F004007E
:1018300004904FF400700090022001900320039068
:1018400069462846FFF772F92815CDE90004694674
:1018500028460294FFF76AF905B030BD0038014010
:101860000010024000080140FEE700000F4810B5DC
:101870000D4901600821416000214FF44032816030
:10188000C0E9031212014261017641768176C17688
:1018900001774177FEF7BBFF002803D0BDE8104079
:1018A000FEF743BD10BD0000006400402000002092
:1018B0000F4810B50D4901600821416000214FF427
:1018C00040328160C0E903121201426101760122B7
:1018D00042768276C17601774177FEF798FF00283D
:1018E00003D0BDE81040FEF720BD10BD00680040E9
:1018F000480000200D4808B5816941F02001816150
:10190000816901F020010091816941F00801816144
:10191000816901F008010091816941F00401816150
:10192000806900F00400009008BD00000010024033
:101930001CB500240F4800940D4901940160472113
:10194000C0E9011440F2CF71C16080218161FFF7CD
:10195000D5FD08B1FEF7E9FC0094694605480194FD
:10196000FFF792FD002801D0FEF7DFFC1CBD000050
:1019700000140040700000200C4810B50A490160B6
:101980004FF4E1314160002181600C22C160C0E967
:1019900004128161C161FFF7FEFE002803D0BDE89B
:1019A0001040FEF7C2BC10BD00380140B800002056
:1019B000FEE7FEE77047704770B58AB00024DDE9A6
:1019C0000E650291089404940821CDE905410E4961
:1019D0000C75110A8DF800108DF80120190A8DF888
:1019E0000210310A8DF804108DF80560290A8DF86F
:1019F00006108DF803308DF8075008AB6A4602A92F
:101A0000FEF7A7FC0AB070BDFC000020FFF784B908
:101A100070B594B038216846FEF7FEFB14210EA87D
:101A2000FEF7FAFB012500242804CDE90204022672
:101A3000CDE908600095059501944FF4E010CDE9DB
:101A40000A046846FFF718FB08B172B6FEE70F20DC
:101A5000CDE90E064FF48060CDE9104002210EA8BA
:101A60001294FFF7F5F908B172B6FEE70148056771
:101A700014B070BD00004242704700000148FFF7FB
:101A8000BCBD000070000020F0B50268194B1A4C74
:101A90001A4D1B4E4FF08047984207D0B84205D0F0
:101AA000A04203D0A84201D0B04204D122F0700C71
:101AB0004A6842EA0C02984207D0B84205D0A042D8
:101AC00003D0A84201D0B04203D122F44074CA68C6
:101AD00022434C6922F08002224302608A68C2627B
:101AE0000A688262984201D109690163012141615A
:101AF000F0BD0000002C0140000400400008004040
:101B0000000C004070B5044600680169E26821F4E9
:101B10004051114301612169A0680843616908438C
:101B20002168CA6841F20C639A430243CA60206884
:101B30004169A26921F44071114341611E49206845
:101B4000884202D1FFF72AFA01E0FFF717FA00EB0B
:101B5000C00101EB0012606864218000B2FBF0F369
:101B6000B3FBF1F36FF018067343B2FBF0F5B2FB71
:101B7000F0F605EB8305322303EB0515B5FBF1F514
:101B8000B6FBF1F605F0F00505EB0615B2FBF0F635
:101B9000B2FBF0F0B0FBF1F06FF01802504306EB2F
:101BA000800003EB0010B0FBF1F0216800F00F00A3
:101BB0002844886070BD000000380140FEE7000046
:101BC0000FB4054B10B503A9044A029800F028F899
:101BD00010BC5DF814FB0000E11E000804000020AA
:101BE0000907090E002804DB00F1E02080F800144A
:101BF000704700F00F0000F1E02080F8141D7047DE
:101C000002E008C8121F08C1002AFAD170477047C5
:101C1000002001E001C1121F002AFBD17047000023
:101C20002DE9FF4F8DB09B460F460446002606E087
:101C300025280BD05A460F999047641C761C2078B3
:101C40000028F5D111B03046BDE8F08F0025A84638
:101C50000122984900E0054314F8013F203B02FAB5
:101C600003F00842F7D120782E2817D114F8010F7D
:101C700045F004052A280ED06FF02F022078A0F13D
:101C8000300109290AD808EB880102EB410100EB79
:101C90000108641CF2E757F8048B641C20786C2858
:101CA0000DD004DC4C2812D06A2811D104E074282D
:101CB0000DD07A280CD10AE045F4001507E06178D0
:101CC00045F48015814202D1641C05F58015641C21
:101CD0002278692A45D008DC002AB3D0582A69D076
:101CE000632A10D0642A08D13BE0702A67D0732A97
:101CF00013D0752A5CD0782A5CD010465A460F99CA
:101D00009047761CD3E017F8040B8DF800000020F4
:101D10008DF80100E946012003E057F8049B4FF0DD
:101D2000FF3069074FF0000501D40AE06D1C4545FE
:101D30000DDA8542FADB19F805100029F6D106E024
:101D40006D1C8542FCDB19F805100029F8D12E44E2
:101D500004E019F8010B5A460F9990476D1EF8D20E
:101D6000A5E00A200021CDE90801C5F302500228B0
:101D70000DD001CFC117031E71F100030DDA4FF032
:101D8000000CD0EB0C006CEB01012D2308E0FF1DD3
:101D900027F00707F7E80201EDE72B0504D52B2311
:101DA0008DF8283001233BE0EB0739D02023F7E7FB
:101DB0000A2000E010200021CDE9080107E01020F2
:101DC000002145F00405CDE908014FF00808C5F3EE
:101DD000025002280FD001CF00214FF0000A2B073C
:101DE0001FD5702A0DD0DDE908C38CF0100C5CEA19
:101DF000030C0CD015E0FF1D27F00707F7E80201E0
:101E0000EBE740228DF828204FF0010A0BE050EA62
:101E1000010306D030238DF828308DF829200223C5
:101E20009A46582A04D024A20DF120090B9209E009
:101E300026A2F9E7DDE90823FEF7A6F90B9B9B5CD8
:101E400009F8013D50EA0102F4D1ADEB0900203060
:101E50000890680701D44FF001080899884502DD11
:101E6000A8EB010000E000208046002506E00AA85B
:101E70005A46405D0F9990476D1C761C5545F6DB20
:101E800004E030205A460F999047761CB8F10001C3
:101E9000A8F10108F5DC05E019F8010B5A460F9985
:101EA0009047761C0899481E08900029F4DC641CB1
:101EB000C5E60000092801003031323334353637A9
:101EC0003839616263646566000000003031323386
:101ED0003435363738394142434445460000000026
:101EE00004490A685206FCD5024AC1B2121D1160AB
:101EF0007047000000380140FEF716FFFFF788FD2D
:101F0000FFF7F8FCFFF7B2FCFFF7D2FCFFF734FD58
:101F1000FFF70EFDFEF7AEF96420FEF7F5FDFEF7C4
:101F2000D5F96420FEF7F0FD0548FFF733FB4FF4C9
:101F30007A742046FEF7E8FD02A0FFF741FEF8E7BD
:101F400070000020746573740D0A0000000000002A
:101F50000000000001020304060708090000000059
:101F600001020304841F000800000020200000007C
:101F7000001C0008A41F000820000020100500001D
:101F8000101C00080000000000000000010000001C
:101F900010000000000000000024F4000000000019
:041FA000000000003D
:04000005080001519D
:00000001FF
